{
  "_format": "hh-sol-artifact-1",
  "contractName": "AMS",
  "sourceName": "contracts/AMS.sol",
  "abi": [
    {
      "inputs": [],
      "stateMutability": "nonpayable",
      "type": "constructor"
    },
    {
      "anonymous": false,
      "inputs": [
        {
          "indexed": true,
          "internalType": "address",
          "name": "sender",
          "type": "address"
        },
        {
          "indexed": true,
          "internalType": "address",
          "name": "receiver",
          "type": "address"
        },
        {
          "indexed": false,
          "internalType": "uint256",
          "name": "pickupTime",
          "type": "uint256"
        },
        {
          "indexed": false,
          "internalType": "uint256",
          "name": "distance",
          "type": "uint256"
        },
        {
          "indexed": false,
          "internalType": "uint256",
          "name": "price",
          "type": "uint256"
        },
        {
          "indexed": false,
          "internalType": "string",
          "name": "weaponName",
          "type": "string"
        },
        {
          "indexed": false,
          "internalType": "string",
          "name": "weaponType",
          "type": "string"
        },
        {
          "indexed": false,
          "internalType": "string",
          "name": "weaponDetails",
          "type": "string"
        }
      ],
      "name": "ShipmentCreated",
      "type": "event"
    },
    {
      "anonymous": false,
      "inputs": [
        {
          "indexed": true,
          "internalType": "address",
          "name": "sender",
          "type": "address"
        },
        {
          "indexed": true,
          "internalType": "address",
          "name": "receiver",
          "type": "address"
        },
        {
          "indexed": false,
          "internalType": "uint256",
          "name": "deliveryTime",
          "type": "uint256"
        }
      ],
      "name": "ShipmentDelivered",
      "type": "event"
    },
    {
      "anonymous": false,
      "inputs": [
        {
          "indexed": true,
          "internalType": "address",
          "name": "sender",
          "type": "address"
        },
        {
          "indexed": true,
          "internalType": "address",
          "name": "receiver",
          "type": "address"
        },
        {
          "indexed": false,
          "internalType": "uint256",
          "name": "pickupTime",
          "type": "uint256"
        }
      ],
      "name": "ShipmentInTransit",
      "type": "event"
    },
    {
      "anonymous": false,
      "inputs": [
        {
          "indexed": true,
          "internalType": "address",
          "name": "sender",
          "type": "address"
        },
        {
          "indexed": true,
          "internalType": "address",
          "name": "receiver",
          "type": "address"
        },
        {
          "indexed": false,
          "internalType": "uint256",
          "name": "amount",
          "type": "uint256"
        }
      ],
      "name": "ShipmentPaid",
      "type": "event"
    },
    {
      "inputs": [
        {
          "internalType": "address",
          "name": "_sender",
          "type": "address"
        },
        {
          "internalType": "address",
          "name": "_receiver",
          "type": "address"
        },
        {
          "internalType": "uint256",
          "name": "_index",
          "type": "uint256"
        }
      ],
      "name": "completeShipment",
      "outputs": [],
      "stateMutability": "nonpayable",
      "type": "function"
    },
    {
      "inputs": [
        {
          "internalType": "address",
          "name": "_receiver",
          "type": "address"
        },
        {
          "internalType": "uint256",
          "name": "_pickupTime",
          "type": "uint256"
        },
        {
          "internalType": "uint256",
          "name": "_distance",
          "type": "uint256"
        },
        {
          "internalType": "uint256",
          "name": "_price",
          "type": "uint256"
        },
        {
          "internalType": "string",
          "name": "_weaponName",
          "type": "string"
        },
        {
          "internalType": "string",
          "name": "_weaponType",
          "type": "string"
        },
        {
          "internalType": "string",
          "name": "_weaponDetails",
          "type": "string"
        }
      ],
      "name": "createShipment",
      "outputs": [],
      "stateMutability": "payable",
      "type": "function"
    },
    {
      "inputs": [],
      "name": "getAllTransactions",
      "outputs": [
        {
          "components": [
            {
              "internalType": "address",
              "name": "sender",
              "type": "address"
            },
            {
              "internalType": "address",
              "name": "receiver",
              "type": "address"
            },
            {
              "internalType": "uint256",
              "name": "pickupTime",
              "type": "uint256"
            },
            {
              "internalType": "uint256",
              "name": "deliveryTime",
              "type": "uint256"
            },
            {
              "internalType": "uint256",
              "name": "distance",
              "type": "uint256"
            },
            {
              "internalType": "uint256",
              "name": "price",
              "type": "uint256"
            },
            {
              "internalType": "string",
              "name": "weaponName",
              "type": "string"
            },
            {
              "internalType": "string",
              "name": "weaponType",
              "type": "string"
            },
            {
              "internalType": "string",
              "name": "weaponDetails",
              "type": "string"
            },
            {
              "internalType": "enum AMS.ShipmentStatus",
              "name": "status",
              "type": "uint8"
            },
            {
              "internalType": "bool",
              "name": "isPaid",
              "type": "bool"
            }
          ],
          "internalType": "struct AMS.TypeShipment[]",
          "name": "",
          "type": "tuple[]"
        }
      ],
      "stateMutability": "view",
      "type": "function"
    },
    {
      "inputs": [
        {
          "internalType": "address",
          "name": "_sender",
          "type": "address"
        },
        {
          "internalType": "uint256",
          "name": "_index",
          "type": "uint256"
        }
      ],
      "name": "getShipment",
      "outputs": [
        {
          "internalType": "address",
          "name": "",
          "type": "address"
        },
        {
          "internalType": "address",
          "name": "",
          "type": "address"
        },
        {
          "internalType": "uint256",
          "name": "",
          "type": "uint256"
        },
        {
          "internalType": "uint256",
          "name": "",
          "type": "uint256"
        },
        {
          "internalType": "uint256",
          "name": "",
          "type": "uint256"
        },
        {
          "internalType": "uint256",
          "name": "",
          "type": "uint256"
        },
        {
          "internalType": "string",
          "name": "",
          "type": "string"
        },
        {
          "internalType": "string",
          "name": "",
          "type": "string"
        },
        {
          "internalType": "string",
          "name": "",
          "type": "string"
        },
        {
          "internalType": "enum AMS.ShipmentStatus",
          "name": "",
          "type": "uint8"
        },
        {
          "internalType": "bool",
          "name": "",
          "type": "bool"
        }
      ],
      "stateMutability": "view",
      "type": "function"
    },
    {
      "inputs": [
        {
          "internalType": "address",
          "name": "_sender",
          "type": "address"
        }
      ],
      "name": "getShipmentsCount",
      "outputs": [
        {
          "internalType": "uint256",
          "name": "",
          "type": "uint256"
        }
      ],
      "stateMutability": "view",
      "type": "function"
    },
    {
      "inputs": [],
      "name": "shipmentCount",
      "outputs": [
        {
          "internalType": "uint256",
          "name": "",
          "type": "uint256"
        }
      ],
      "stateMutability": "view",
      "type": "function"
    },
    {
      "inputs": [
        {
          "internalType": "address",
          "name": "",
          "type": "address"
        },
        {
          "internalType": "uint256",
          "name": "",
          "type": "uint256"
        }
      ],
      "name": "shipments",
      "outputs": [
        {
          "internalType": "address",
          "name": "sender",
          "type": "address"
        },
        {
          "internalType": "address",
          "name": "receiver",
          "type": "address"
        },
        {
          "internalType": "uint256",
          "name": "pickupTime",
          "type": "uint256"
        },
        {
          "internalType": "uint256",
          "name": "deliveryTime",
          "type": "uint256"
        },
        {
          "internalType": "uint256",
          "name": "distance",
          "type": "uint256"
        },
        {
          "internalType": "uint256",
          "name": "price",
          "type": "uint256"
        },
        {
          "internalType": "string",
          "name": "weaponName",
          "type": "string"
        },
        {
          "internalType": "string",
          "name": "weaponType",
          "type": "string"
        },
        {
          "internalType": "string",
          "name": "weaponDetails",
          "type": "string"
        },
        {
          "internalType": "enum AMS.ShipmentStatus",
          "name": "status",
          "type": "uint8"
        },
        {
          "internalType": "bool",
          "name": "isPaid",
          "type": "bool"
        }
      ],
      "stateMutability": "view",
      "type": "function"
    },
    {
      "inputs": [
        {
          "internalType": "address",
          "name": "_sender",
          "type": "address"
        },
        {
          "internalType": "address",
          "name": "_receiver",
          "type": "address"
        },
        {
          "internalType": "uint256",
          "name": "_index",
          "type": "uint256"
        }
      ],
      "name": "startShipment",
      "outputs": [],
      "stateMutability": "nonpayable",
      "type": "function"
    }
  ],
  "bytecode": "0x608060405234801561001057600080fd5b50600060018190555061253a806100286000396000f3fe60806040526004361061007b5760003560e01c80635667e02f1161004e5780635667e02f1461012d5780637ff5265d146101745780638365da541461019d578063aace20b7146101e45761007b565b806304284a2514610080578063179a878c1461009c57806327506f53146100c557806341fdc195146100f0575b600080fd5b61009a600480360381019061009591906118c7565b61020f565b005b3480156100a857600080fd5b506100c360048036038101906100be91906119bd565b6106ef565b005b3480156100d157600080fd5b506100da610ac3565b6040516100e79190611cfe565b60405180910390f35b3480156100fc57600080fd5b5061011760048036038101906101129190611d20565b610e03565b6040516101249190611d5c565b60405180910390f35b34801561013957600080fd5b50610154600480360381019061014f9190611d77565b610e4e565b60405161016b9b9a99989796959493929190611e2e565b60405180910390f35b34801561018057600080fd5b5061019b600480360381019061019691906119bd565b6110b7565b005b3480156101a957600080fd5b506101c460048036038101906101bf9190611d77565b611313565b6040516101db9b9a99989796959493929190611e2e565b60405180910390f35b3480156101f057600080fd5b506101f96116d3565b6040516102069190611d5c565b60405180910390f35b60006040518061016001604052803373ffffffffffffffffffffffffffffffffffffffff1681526020018973ffffffffffffffffffffffffffffffffffffffff168152602001888152602001600081526020018781526020018681526020018581526020018481526020018381526020016000600281111561029457610293611ad9565b5b81526020016000151581525090506000803373ffffffffffffffffffffffffffffffffffffffff1673ffffffffffffffffffffffffffffffffffffffff1681526020019081526020016000208190806001815401808255809150506001900390600052602060002090600a020160009091909190915060008201518160000160006101000a81548173ffffffffffffffffffffffffffffffffffffffff021916908373ffffffffffffffffffffffffffffffffffffffff16021790555060208201518160010160006101000a81548173ffffffffffffffffffffffffffffffffffffffff021916908373ffffffffffffffffffffffffffffffffffffffff16021790555060408201518160020155606082015181600301556080820151816004015560a0820151816005015560c08201518160060190816103d591906120fa565b5060e08201518160070190816103eb91906120fa565b5061010082015181600801908161040291906120fa565b506101208201518160090160006101000a81548160ff0219169083600281111561042f5761042e611ad9565b5b02179055506101408201518160090160016101000a81548160ff02191690831515021790555050506001600081548092919061046a906121fb565b919050555060026040518061016001604052803373ffffffffffffffffffffffffffffffffffffffff1681526020018a73ffffffffffffffffffffffffffffffffffffffff16815260200189815260200160008152602001888152602001878152602001868152602001858152602001848152602001600060028111156104f4576104f3611ad9565b5b81526020016000151581525090806001815401808255809150506001900390600052602060002090600a020160009091909190915060008201518160000160006101000a81548173ffffffffffffffffffffffffffffffffffffffff021916908373ffffffffffffffffffffffffffffffffffffffff16021790555060208201518160010160006101000a81548173ffffffffffffffffffffffffffffffffffffffff021916908373ffffffffffffffffffffffffffffffffffffffff16021790555060408201518160020155606082015181600301556080820151816004015560a0820151816005015560c08201518160060190816105f491906120fa565b5060e082015181600701908161060a91906120fa565b5061010082015181600801908161062191906120fa565b506101208201518160090160006101000a81548160ff0219169083600281111561064e5761064d611ad9565b5b02179055506101408201518160090160016101000a81548160ff02191690831515021790555050508773ffffffffffffffffffffffffffffffffffffffff163373ffffffffffffffffffffffffffffffffffffffff167f8e912b6e93365c01cb55db7666913949b69617f86583940b79f460ffb2d389d58989898989896040516106dd96959493929190612243565b60405180910390a35050505050505050565b60008060008573ffffffffffffffffffffffffffffffffffffffff1673ffffffffffffffffffffffffffffffffffffffff1681526020019081526020016000208281548110610741576107406122b9565b5b90600052602060002090600a02019050600060028381548110610767576107666122b9565b5b90600052602060002090600a020190508373ffffffffffffffffffffffffffffffffffffffff168260010160009054906101000a900473ffffffffffffffffffffffffffffffffffffffff1673ffffffffffffffffffffffffffffffffffffffff1614610809576040517f08c379a000000000000000000000000000000000000000000000000000000000815260040161080090612334565b60405180910390fd5b6001600281111561081d5761081c611ad9565b5b8260090160009054906101000a900460ff16600281111561084157610840611ad9565b5b14610881576040517f08c379a0000000000000000000000000000000000000000000000000000000008152600401610878906123a0565b60405180910390fd5b8160090160019054906101000a900460ff16156108d3576040517f08c379a00000000000000000000000000000000000000000000000000000000081526004016108ca9061240c565b60405180910390fd5b60028260090160006101000a81548160ff021916908360028111156108fb576108fa611ad9565b5b021790555060028160090160006101000a81548160ff0219169083600281111561092857610927611ad9565b5b02179055504281600301819055504282600301819055506000826005015490508260000160009054906101000a900473ffffffffffffffffffffffffffffffffffffffff1673ffffffffffffffffffffffffffffffffffffffff166108fc829081150290604051600060405180830381858888f193505050501580156109b2573d6000803e3d6000fd5b5060018360090160016101000a81548160ff02191690831515021790555060018260090160016101000a81548160ff0219169083151502179055508473ffffffffffffffffffffffffffffffffffffffff168673ffffffffffffffffffffffffffffffffffffffff167f3746ccceb54f44c9b0ee0120e596168d07ec9f6ca303cfdd9810d3b2e2686a2e8560030154604051610a4e9190611d5c565b60405180910390a38473ffffffffffffffffffffffffffffffffffffffff168673ffffffffffffffffffffffffffffffffffffffff167f2b6f2473aebafaf8d0889669490135928ec4454d2e29a103fd39693bbca6aef183604051610ab39190611d5c565b60405180910390a3505050505050565b60606002805480602002602001604051908101604052809291908181526020016000905b82821015610dfa57838290600052602060002090600a0201604051806101600160405290816000820160009054906101000a900473ffffffffffffffffffffffffffffffffffffffff1673ffffffffffffffffffffffffffffffffffffffff1673ffffffffffffffffffffffffffffffffffffffff1681526020016001820160009054906101000a900473ffffffffffffffffffffffffffffffffffffffff1673ffffffffffffffffffffffffffffffffffffffff1673ffffffffffffffffffffffffffffffffffffffff16815260200160028201548152602001600382015481526020016004820154815260200160058201548152602001600682018054610bef90611f1d565b80601f0160208091040260200160405190810160405280929190818152602001828054610c1b90611f1d565b8015610c685780601f10610c3d57610100808354040283529160200191610c68565b820191906000526020600020905b815481529060010190602001808311610c4b57829003601f168201915b50505050508152602001600782018054610c8190611f1d565b80601f0160208091040260200160405190810160405280929190818152602001828054610cad90611f1d565b8015610cfa5780601f10610ccf57610100808354040283529160200191610cfa565b820191906000526020600020905b815481529060010190602001808311610cdd57829003601f168201915b50505050508152602001600882018054610d1390611f1d565b80601f0160208091040260200160405190810160405280929190818152602001828054610d3f90611f1d565b8015610d8c5780601f10610d6157610100808354040283529160200191610d8c565b820191906000526020600020905b815481529060010190602001808311610d6f57829003601f168201915b505050505081526020016009820160009054906101000a900460ff166002811115610dba57610db9611ad9565b5b6002811115610dcc57610dcb611ad9565b5b81526020016009820160019054906101000a900460ff16151515158152505081526020019060010190610ae7565b50505050905090565b60008060008373ffffffffffffffffffffffffffffffffffffffff1673ffffffffffffffffffffffffffffffffffffffff168152602001908152602001600020805490509050919050565b60006020528160005260406000208181548110610e6a57600080fd5b90600052602060002090600a0201600091509150508060000160009054906101000a900473ffffffffffffffffffffffffffffffffffffffff16908060010160009054906101000a900473ffffffffffffffffffffffffffffffffffffffff1690806002015490806003015490806004015490806005015490806006018054610ef290611f1d565b80601f0160208091040260200160405190810160405280929190818152602001828054610f1e90611f1d565b8015610f6b5780601f10610f4057610100808354040283529160200191610f6b565b820191906000526020600020905b815481529060010190602001808311610f4e57829003601f168201915b505050505090806007018054610f8090611f1d565b80601f0160208091040260200160405190810160405280929190818152602001828054610fac90611f1d565b8015610ff95780601f10610fce57610100808354040283529160200191610ff9565b820191906000526020600020905b815481529060010190602001808311610fdc57829003601f168201915b50505050509080600801805461100e90611f1d565b80601f016020809104026020016040519081016040528092919081815260200182805461103a90611f1d565b80156110875780601f1061105c57610100808354040283529160200191611087565b820191906000526020600020905b81548152906001019060200180831161106a57829003601f168201915b5050505050908060090160009054906101000a900460ff16908060090160019054906101000a900460ff1690508b565b60008060008573ffffffffffffffffffffffffffffffffffffffff1673ffffffffffffffffffffffffffffffffffffffff1681526020019081526020016000208281548110611109576111086122b9565b5b90600052602060002090600a0201905060006002838154811061112f5761112e6122b9565b5b90600052602060002090600a020190508373ffffffffffffffffffffffffffffffffffffffff168260010160009054906101000a900473ffffffffffffffffffffffffffffffffffffffff1673ffffffffffffffffffffffffffffffffffffffff16146111d1576040517f08c379a00000000000000000000000000000000000000000000000000000000081526004016111c890612478565b60405180910390fd5b600060028111156111e5576111e4611ad9565b5b8260090160009054906101000a900460ff16600281111561120957611208611ad9565b5b14611249576040517f08c379a0000000000000000000000000000000000000000000000000000000008152600401611240906124e4565b60405180910390fd5b60018260090160006101000a81548160ff0219169083600281111561127157611270611ad9565b5b021790555060018160090160006101000a81548160ff0219169083600281111561129e5761129d611ad9565b5b02179055508373ffffffffffffffffffffffffffffffffffffffff168573ffffffffffffffffffffffffffffffffffffffff167faafab9f94340179ff9cefd29621e1772a4b8efab8023163838f1b0a8f6ce5df584600201546040516113049190611d5c565b60405180910390a35050505050565b600080600080600080606080606060008060008060008f73ffffffffffffffffffffffffffffffffffffffff1673ffffffffffffffffffffffffffffffffffffffff1681526020019081526020016000208d81548110611376576113756122b9565b5b90600052602060002090600a0201604051806101600160405290816000820160009054906101000a900473ffffffffffffffffffffffffffffffffffffffff1673ffffffffffffffffffffffffffffffffffffffff1673ffffffffffffffffffffffffffffffffffffffff1681526020016001820160009054906101000a900473ffffffffffffffffffffffffffffffffffffffff1673ffffffffffffffffffffffffffffffffffffffff1673ffffffffffffffffffffffffffffffffffffffff1681526020016002820154815260200160038201548152602001600482015481526020016005820154815260200160068201805461147490611f1d565b80601f01602080910402602001604051908101604052809291908181526020018280546114a090611f1d565b80156114ed5780601f106114c2576101008083540402835291602001916114ed565b820191906000526020600020905b8154815290600101906020018083116114d057829003601f168201915b5050505050815260200160078201805461150690611f1d565b80601f016020809104026020016040519081016040528092919081815260200182805461153290611f1d565b801561157f5780601f106115545761010080835404028352916020019161157f565b820191906000526020600020905b81548152906001019060200180831161156257829003601f168201915b5050505050815260200160088201805461159890611f1d565b80601f01602080910402602001604051908101604052809291908181526020018280546115c490611f1d565b80156116115780601f106115e657610100808354040283529160200191611611565b820191906000526020600020905b8154815290600101906020018083116115f457829003601f168201915b505050505081526020016009820160009054906101000a900460ff16600281111561163f5761163e611ad9565b5b600281111561165157611650611ad9565b5b81526020016009820160019054906101000a900460ff1615151515815250509050806000015181602001518260400151836060015184608001518560a001518660c001518760e001518861010001518961012001518a61014001519b509b509b509b509b509b509b509b509b509b509b50509295989b509295989b9093969950565b60015481565b6000604051905090565b600080fd5b600080fd5b600073ffffffffffffffffffffffffffffffffffffffff82169050919050565b6000611718826116ed565b9050919050565b6117288161170d565b811461173357600080fd5b50565b6000813590506117458161171f565b92915050565b6000819050919050565b61175e8161174b565b811461176957600080fd5b50565b60008135905061177b81611755565b92915050565b600080fd5b600080fd5b6000601f19601f8301169050919050565b7f4e487b7100000000000000000000000000000000000000000000000000000000600052604160045260246000fd5b6117d48261178b565b810181811067ffffffffffffffff821117156117f3576117f261179c565b5b80604052505050565b60006118066116d9565b905061181282826117cb565b919050565b600067ffffffffffffffff8211156118325761183161179c565b5b61183b8261178b565b9050602081019050919050565b82818337600083830152505050565b600061186a61186584611817565b6117fc565b90508281526020810184848401111561188657611885611786565b5b611891848285611848565b509392505050565b600082601f8301126118ae576118ad611781565b5b81356118be848260208601611857565b91505092915050565b600080600080600080600060e0888a0312156118e6576118e56116e3565b5b60006118f48a828b01611736565b97505060206119058a828b0161176c565b96505060406119168a828b0161176c565b95505060606119278a828b0161176c565b945050608088013567ffffffffffffffff811115611948576119476116e8565b5b6119548a828b01611899565b93505060a088013567ffffffffffffffff811115611975576119746116e8565b5b6119818a828b01611899565b92505060c088013567ffffffffffffffff8111156119a2576119a16116e8565b5b6119ae8a828b01611899565b91505092959891949750929550565b6000806000606084860312156119d6576119d56116e3565b5b60006119e486828701611736565b93505060206119f586828701611736565b9250506040611a068682870161176c565b9150509250925092565b600081519050919050565b600082825260208201905092915050565b6000819050602082019050919050565b611a458161170d565b82525050565b611a548161174b565b82525050565b600081519050919050565b600082825260208201905092915050565b60005b83811015611a94578082015181840152602081019050611a79565b60008484015250505050565b6000611aab82611a5a565b611ab58185611a65565b9350611ac5818560208601611a76565b611ace8161178b565b840191505092915050565b7f4e487b7100000000000000000000000000000000000000000000000000000000600052602160045260246000fd5b60038110611b1957611b18611ad9565b5b50565b6000819050611b2a82611b08565b919050565b6000611b3a82611b1c565b9050919050565b611b4a81611b2f565b82525050565b60008115159050919050565b611b6581611b50565b82525050565b600061016083016000830151611b846000860182611a3c565b506020830151611b976020860182611a3c565b506040830151611baa6040860182611a4b565b506060830151611bbd6060860182611a4b565b506080830151611bd06080860182611a4b565b5060a0830151611be360a0860182611a4b565b5060c083015184820360c0860152611bfb8282611aa0565b91505060e083015184820360e0860152611c158282611aa0565b915050610100830151848203610100860152611c318282611aa0565b915050610120830151611c48610120860182611b41565b50610140830151611c5d610140860182611b5c565b508091505092915050565b6000611c748383611b6b565b905092915050565b6000602082019050919050565b6000611c9482611a10565b611c9e8185611a1b565b935083602082028501611cb085611a2c565b8060005b85811015611cec5784840389528151611ccd8582611c68565b9450611cd883611c7c565b925060208a01995050600181019050611cb4565b50829750879550505050505092915050565b60006020820190508181036000830152611d188184611c89565b905092915050565b600060208284031215611d3657611d356116e3565b5b6000611d4484828501611736565b91505092915050565b611d568161174b565b82525050565b6000602082019050611d716000830184611d4d565b92915050565b60008060408385031215611d8e57611d8d6116e3565b5b6000611d9c85828601611736565b9250506020611dad8582860161176c565b9150509250929050565b611dc08161170d565b82525050565b600082825260208201905092915050565b6000611de282611a5a565b611dec8185611dc6565b9350611dfc818560208601611a76565b611e058161178b565b840191505092915050565b611e1981611b2f565b82525050565b611e2881611b50565b82525050565b600061016082019050611e44600083018e611db7565b611e51602083018d611db7565b611e5e604083018c611d4d565b611e6b606083018b611d4d565b611e78608083018a611d4d565b611e8560a0830189611d4d565b81810360c0830152611e978188611dd7565b905081810360e0830152611eab8187611dd7565b9050818103610100830152611ec08186611dd7565b9050611ed0610120830185611e10565b611ede610140830184611e1f565b9c9b505050505050505050505050565b7f4e487b7100000000000000000000000000000000000000000000000000000000600052602260045260246000fd5b60006002820490506001821680611f3557607f821691505b602082108103611f4857611f47611eee565b5b50919050565b60008190508160005260206000209050919050565b60006020601f8301049050919050565b600082821b905092915050565b600060088302611fb07fffffffffffffffffffffffffffffffffffffffffffffffffffffffffffffffff82611f73565b611fba8683611f73565b95508019841693508086168417925050509392505050565b6000819050919050565b6000611ff7611ff2611fed8461174b565b611fd2565b61174b565b9050919050565b6000819050919050565b61201183611fdc565b61202561201d82611ffe565b848454611f80565b825550505050565b600090565b61203a61202d565b612045818484612008565b505050565b5b818110156120695761205e600082612032565b60018101905061204b565b5050565b601f8211156120ae5761207f81611f4e565b61208884611f63565b81016020851015612097578190505b6120ab6120a385611f63565b83018261204a565b50505b505050565b600082821c905092915050565b60006120d1600019846008026120b3565b1980831691505092915050565b60006120ea83836120c0565b9150826002028217905092915050565b61210382611a5a565b67ffffffffffffffff81111561211c5761211b61179c565b5b6121268254611f1d565b61213182828561206d565b600060209050601f8311600181146121645760008415612152578287015190505b61215c85826120de565b8655506121c4565b601f19841661217286611f4e565b60005b8281101561219a57848901518255600182019150602085019450602081019050612175565b868310156121b757848901516121b3601f8916826120c0565b8355505b6001600288020188555050505b505050505050565b7f4e487b7100000000000000000000000000000000000000000000000000000000600052601160045260246000fd5b60006122068261174b565b91507fffffffffffffffffffffffffffffffffffffffffffffffffffffffffffffffff8203612238576122376121cc565b5b600182019050919050565b600060c0820190506122586000830189611d4d565b6122656020830188611d4d565b6122726040830187611d4d565b81810360608301526122848186611dd7565b905081810360808301526122988185611dd7565b905081810360a08301526122ac8184611dd7565b9050979650505050505050565b7f4e487b7100000000000000000000000000000000000000000000000000000000600052603260045260246000fd5b7f496e76616c69642072656365697665722e000000000000000000000000000000600082015250565b600061231e601183611dc6565b9150612329826122e8565b602082019050919050565b6000602082019050818103600083015261234d81612311565b9050919050565b7f536869706d656e74206e6f7420696e207472616e736974000000000000000000600082015250565b600061238a601783611dc6565b915061239582612354565b602082019050919050565b600060208201905081810360008301526123b98161237d565b9050919050565b7f536869706d656e7420616c726561647920706169642e00000000000000000000600082015250565b60006123f6601683611dc6565b9150612401826123c0565b602082019050919050565b60006020820190508181036000830152612425816123e9565b9050919050565b7f496e76616c696420726563656976657200000000000000000000000000000000600082015250565b6000612462601083611dc6565b915061246d8261242c565b602082019050919050565b6000602082019050818103600083015261249181612455565b9050919050565b7f536869706d656e7420616c726561647920696e207472616e7369740000000000600082015250565b60006124ce601b83611dc6565b91506124d982612498565b602082019050919050565b600060208201905081810360008301526124fd816124c1565b905091905056fea2646970667358221220ca40117804df5df61f42b7a1284849bfddb469aa116e5fcd006ff322c064829f64736f6c63430008120033",
  "linkReferences": {},
  "deployedLinkReferences": {}
}