{
  "_format": "hh-sol-artifact-1",
  "contractName": "AMS",
  "sourceName": "contracts/AMS.sol",
  "abi": [
    {
      "inputs": [],
      "stateMutability": "nonpayable",
      "type": "constructor"
    },
    {
      "anonymous": false,
      "inputs": [
        {
          "indexed": true,
          "internalType": "address",
          "name": "sender",
          "type": "address"
        },
        {
          "indexed": true,
          "internalType": "address",
          "name": "receiver",
          "type": "address"
        },
        {
          "indexed": false,
          "internalType": "uint256",
          "name": "pickupTime",
          "type": "uint256"
        },
        {
          "indexed": false,
          "internalType": "uint256",
          "name": "distance",
          "type": "uint256"
        },
        {
          "indexed": false,
          "internalType": "uint256",
          "name": "price",
          "type": "uint256"
        },
        {
          "indexed": false,
          "internalType": "string",
          "name": "weaponName",
          "type": "string"
        },
        {
          "indexed": false,
          "internalType": "string",
          "name": "weaponType",
          "type": "string"
        },
        {
          "indexed": false,
          "internalType": "string",
          "name": "weaponDetails",
          "type": "string"
        }
      ],
      "name": "ShipmentCreated",
      "type": "event"
    },
    {
      "anonymous": false,
      "inputs": [
        {
          "indexed": true,
          "internalType": "address",
          "name": "sender",
          "type": "address"
        },
        {
          "indexed": true,
          "internalType": "address",
          "name": "receiver",
          "type": "address"
        },
        {
          "indexed": false,
          "internalType": "uint256",
          "name": "deliveryTime",
          "type": "uint256"
        }
      ],
      "name": "ShipmentDelivered",
      "type": "event"
    },
    {
      "anonymous": false,
      "inputs": [
        {
          "indexed": true,
          "internalType": "address",
          "name": "sender",
          "type": "address"
        },
        {
          "indexed": true,
          "internalType": "address",
          "name": "receiver",
          "type": "address"
        },
        {
          "indexed": false,
          "internalType": "uint256",
          "name": "pickupTime",
          "type": "uint256"
        }
      ],
      "name": "ShipmentInTransit",
      "type": "event"
    },
    {
      "anonymous": false,
      "inputs": [
        {
          "indexed": true,
          "internalType": "address",
          "name": "sender",
          "type": "address"
        },
        {
          "indexed": true,
          "internalType": "address",
          "name": "receiver",
          "type": "address"
        },
        {
          "indexed": false,
          "internalType": "uint256",
          "name": "amount",
          "type": "uint256"
        }
      ],
      "name": "ShipmentPaid",
      "type": "event"
    },
    {
      "inputs": [
        {
          "internalType": "address",
          "name": "_sender",
          "type": "address"
        },
        {
          "internalType": "address",
          "name": "_receiver",
          "type": "address"
        },
        {
          "internalType": "uint256",
          "name": "_index",
          "type": "uint256"
        }
      ],
      "name": "completeShipment",
      "outputs": [],
      "stateMutability": "nonpayable",
      "type": "function"
    },
    {
      "inputs": [
        {
          "internalType": "address",
          "name": "_receiver",
          "type": "address"
        },
        {
          "internalType": "uint256",
          "name": "_pickupTime",
          "type": "uint256"
        },
        {
          "internalType": "uint256",
          "name": "_distance",
          "type": "uint256"
        },
        {
          "internalType": "uint256",
          "name": "_price",
          "type": "uint256"
        },
        {
          "internalType": "string",
          "name": "_weaponName",
          "type": "string"
        },
        {
          "internalType": "string",
          "name": "_weaponType",
          "type": "string"
        },
        {
          "internalType": "string",
          "name": "_weaponDetails",
          "type": "string"
        }
      ],
      "name": "createShipment",
      "outputs": [],
      "stateMutability": "payable",
      "type": "function"
    },
    {
      "inputs": [],
      "name": "getAllTransactions",
      "outputs": [
        {
          "components": [
            {
              "internalType": "address",
              "name": "sender",
              "type": "address"
            },
            {
              "internalType": "address",
              "name": "receiver",
              "type": "address"
            },
            {
              "internalType": "uint256",
              "name": "pickupTime",
              "type": "uint256"
            },
            {
              "internalType": "uint256",
              "name": "deliveryTime",
              "type": "uint256"
            },
            {
              "internalType": "uint256",
              "name": "distance",
              "type": "uint256"
            },
            {
              "internalType": "uint256",
              "name": "price",
              "type": "uint256"
            },
            {
              "internalType": "string",
              "name": "weaponName",
              "type": "string"
            },
            {
              "internalType": "string",
              "name": "weaponType",
              "type": "string"
            },
            {
              "internalType": "string",
              "name": "weaponDetails",
              "type": "string"
            },
            {
              "internalType": "enum AMS.ShipmentStatus",
              "name": "status",
              "type": "uint8"
            },
            {
              "internalType": "bool",
              "name": "isPaid",
              "type": "bool"
            }
          ],
          "internalType": "struct AMS.TypeShipment[]",
          "name": "",
          "type": "tuple[]"
        }
      ],
      "stateMutability": "view",
      "type": "function"
    },
    {
      "inputs": [
        {
          "internalType": "address",
          "name": "_sender",
          "type": "address"
        },
        {
          "internalType": "uint256",
          "name": "_index",
          "type": "uint256"
        }
      ],
      "name": "getShipment",
      "outputs": [
        {
          "internalType": "address",
          "name": "",
          "type": "address"
        },
        {
          "internalType": "address",
          "name": "",
          "type": "address"
        },
        {
          "internalType": "uint256",
          "name": "",
          "type": "uint256"
        },
        {
          "internalType": "uint256",
          "name": "",
          "type": "uint256"
        },
        {
          "internalType": "uint256",
          "name": "",
          "type": "uint256"
        },
        {
          "internalType": "uint256",
          "name": "",
          "type": "uint256"
        },
        {
          "internalType": "string",
          "name": "",
          "type": "string"
        },
        {
          "internalType": "string",
          "name": "",
          "type": "string"
        },
        {
          "internalType": "string",
          "name": "",
          "type": "string"
        },
        {
          "internalType": "enum AMS.ShipmentStatus",
          "name": "",
          "type": "uint8"
        },
        {
          "internalType": "bool",
          "name": "",
          "type": "bool"
        }
      ],
      "stateMutability": "view",
      "type": "function"
    },
    {
      "inputs": [
        {
          "internalType": "address",
          "name": "_sender",
          "type": "address"
        }
      ],
      "name": "getShipmentsCount",
      "outputs": [
        {
          "internalType": "uint256",
          "name": "",
          "type": "uint256"
        }
      ],
      "stateMutability": "view",
      "type": "function"
    },
    {
      "inputs": [],
      "name": "shipmentCount",
      "outputs": [
        {
          "internalType": "uint256",
          "name": "",
          "type": "uint256"
        }
      ],
      "stateMutability": "view",
      "type": "function"
    },
    {
      "inputs": [
        {
          "internalType": "address",
          "name": "",
          "type": "address"
        },
        {
          "internalType": "uint256",
          "name": "",
          "type": "uint256"
        }
      ],
      "name": "shipments",
      "outputs": [
        {
          "internalType": "address",
          "name": "sender",
          "type": "address"
        },
        {
          "internalType": "address",
          "name": "receiver",
          "type": "address"
        },
        {
          "internalType": "uint256",
          "name": "pickupTime",
          "type": "uint256"
        },
        {
          "internalType": "uint256",
          "name": "deliveryTime",
          "type": "uint256"
        },
        {
          "internalType": "uint256",
          "name": "distance",
          "type": "uint256"
        },
        {
          "internalType": "uint256",
          "name": "price",
          "type": "uint256"
        },
        {
          "internalType": "string",
          "name": "weaponName",
          "type": "string"
        },
        {
          "internalType": "string",
          "name": "weaponType",
          "type": "string"
        },
        {
          "internalType": "string",
          "name": "weaponDetails",
          "type": "string"
        },
        {
          "internalType": "enum AMS.ShipmentStatus",
          "name": "status",
          "type": "uint8"
        },
        {
          "internalType": "bool",
          "name": "isPaid",
          "type": "bool"
        }
      ],
      "stateMutability": "view",
      "type": "function"
    },
    {
      "inputs": [
        {
          "internalType": "address",
          "name": "_sender",
          "type": "address"
        },
        {
          "internalType": "address",
          "name": "_receiver",
          "type": "address"
        },
        {
          "internalType": "uint256",
          "name": "_index",
          "type": "uint256"
        }
      ],
      "name": "startShipment",
      "outputs": [],
      "stateMutability": "nonpayable",
      "type": "function"
    }
  ],
  "bytecode": "0x608060405234801561001057600080fd5b506000600155611765806100256000396000f3fe60806040526004361061007b5760003560e01c80635667e02f1161004e5780635667e02f146101245780637ff5265d1461015b5780638365da541461017b578063aace20b71461019b57600080fd5b806304284a2514610080578063179a878c1461009557806327506f53146100b557806341fdc195146100e0575b600080fd5b61009361008e3660046111e4565b6101b1565b005b3480156100a157600080fd5b506100936100b036600461129a565b61051d565b3480156100c157600080fd5b506100ca6107b9565b6040516100d79190611354565b60405180910390f35b3480156100ec57600080fd5b506101166100fb36600461146e565b6001600160a01b031660009081526020819052604090205490565b6040519081526020016100d7565b34801561013057600080fd5b5061014461013f366004611490565b610a64565b6040516100d79b9a999897969594939291906114ba565b34801561016757600080fd5b5061009361017636600461129a565b610c84565b34801561018757600080fd5b50610144610196366004611490565b610e0d565b3480156101a757600080fd5b5061011660015481565b6000604051806101600160405280336001600160a01b03168152602001896001600160a01b03168152602001888152602001600081526020018781526020018681526020018581526020018481526020018381526020016000600281111561021b5761021b61131c565b8152600060209182018190523381528082526040808220805460018181018355918452928490208551600a9094020180546001600160a01b039485166001600160a01b03199182161782559486015191810180549290941691909416179091558201516002820155606082015160038201556080820151600482015560a0820151600582015560c0820151919250829160068201906102ba90826115da565b5060e082015160078201906102cf90826115da565b5061010082015160088201906102e590826115da565b5061012082015160098201805460ff1916600183600281111561030a5761030a61131c565b02179055506101409190910151600990910180549115156101000261ff0019909216919091179055600180549060006103428361169a565b91905055506002604051806101600160405280336001600160a01b031681526020018a6001600160a01b0316815260200189815260200160008152602001888152602001878152602001868152602001858152602001848152602001600060028111156103b1576103b161131c565b815260006020918201819052835460018082018655948252908290208351600a9092020180546001600160a01b03199081166001600160a01b039384161782559284015194810180549093169490911693909317905560408101516002830155606081015160038301556080810151600483015560a0810151600583015560c0810151909190600682019061044690826115da565b5060e0820151600782019061045b90826115da565b50610100820151600882019061047190826115da565b5061012082015160098201805460ff191660018360028111156104965761049661131c565b02179055506101408201518160090160016101000a81548160ff0219169083151502179055505050876001600160a01b0316336001600160a01b03167f8e912b6e93365c01cb55db7666913949b69617f86583940b79f460ffb2d389d589898989898960405161050b969594939291906116c1565b60405180910390a35050505050505050565b6001600160a01b038316600090815260208190526040812080548390811061054757610547611719565b90600052602060002090600a0201905060006002838154811061056c5761056c611719565b600091825260209091206001840154600a9092020191506001600160a01b038581169116146105d65760405162461bcd60e51b815260206004820152601160248201527024b73b30b634b2103932b1b2b4bb32b91760791b60448201526064015b60405180910390fd5b6001600983015460ff1660028111156105f1576105f161131c565b1461063e5760405162461bcd60e51b815260206004820152601760248201527f536869706d656e74206e6f7420696e207472616e73697400000000000000000060448201526064016105cd565b6009820154610100900460ff16156106915760405162461bcd60e51b815260206004820152601660248201527529b434b836b2b73a1030b63932b0b23c903830b4b21760511b60448201526064016105cd565b60098281018054600260ff1991821681179092559183018054909216179055426003808301829055830155600582015482546040516001600160a01b039091169082156108fc029083906000818181858888f193505050501580156106fa573d6000803e3d6000fd5b506009838101805461010061ff00199182168117909255918401805490921617905560038301546040519081526001600160a01b0386811691908816907f3746ccceb54f44c9b0ee0120e596168d07ec9f6ca303cfdd9810d3b2e2686a2e9060200160405180910390a3846001600160a01b0316866001600160a01b03167f2b6f2473aebafaf8d0889669490135928ec4454d2e29a103fd39693bbca6aef1836040516107a991815260200190565b60405180910390a3505050505050565b60606002805480602002602001604051908101604052809291908181526020016000905b82821015610a5b5760008481526020908190206040805161016081018252600a860290920180546001600160a01b039081168452600182015416938301939093526002830154908201526003820154606082015260048201546080820152600582015460a082015260068201805491929160c08401919061085d90611551565b80601f016020809104026020016040519081016040528092919081815260200182805461088990611551565b80156108d65780601f106108ab576101008083540402835291602001916108d6565b820191906000526020600020905b8154815290600101906020018083116108b957829003601f168201915b505050505081526020016007820180546108ef90611551565b80601f016020809104026020016040519081016040528092919081815260200182805461091b90611551565b80156109685780601f1061093d57610100808354040283529160200191610968565b820191906000526020600020905b81548152906001019060200180831161094b57829003601f168201915b5050505050815260200160088201805461098190611551565b80601f01602080910402602001604051908101604052809291908181526020018280546109ad90611551565b80156109fa5780601f106109cf576101008083540402835291602001916109fa565b820191906000526020600020905b8154815290600101906020018083116109dd57829003601f168201915b5050509183525050600982015460209091019060ff166002811115610a2157610a2161131c565b6002811115610a3257610a3261131c565b815260099190910154610100900460ff16151560209182015290825260019290920191016107dd565b50505050905090565b60006020528160005260406000208181548110610a8057600080fd5b60009182526020909120600a909102018054600182015460028301546003840154600485015460058601546006870180546001600160a01b039788169a50959096169750929591949093610ad390611551565b80601f0160208091040260200160405190810160405280929190818152602001828054610aff90611551565b8015610b4c5780601f10610b2157610100808354040283529160200191610b4c565b820191906000526020600020905b815481529060010190602001808311610b2f57829003601f168201915b505050505090806007018054610b6190611551565b80601f0160208091040260200160405190810160405280929190818152602001828054610b8d90611551565b8015610bda5780601f10610baf57610100808354040283529160200191610bda565b820191906000526020600020905b815481529060010190602001808311610bbd57829003601f168201915b505050505090806008018054610bef90611551565b80601f0160208091040260200160405190810160405280929190818152602001828054610c1b90611551565b8015610c685780601f10610c3d57610100808354040283529160200191610c68565b820191906000526020600020905b815481529060010190602001808311610c4b57829003601f168201915b5050506009909301549192505060ff808216916101009004168b565b6001600160a01b0383166000908152602081905260408120805483908110610cae57610cae611719565b90600052602060002090600a02019050600060028381548110610cd357610cd3611719565b600091825260209091206001840154600a9092020191506001600160a01b03858116911614610d375760405162461bcd60e51b815260206004820152601060248201526f24b73b30b634b2103932b1b2b4bb32b960811b60448201526064016105cd565b6000600983015460ff166002811115610d5257610d5261131c565b14610d9f5760405162461bcd60e51b815260206004820152601b60248201527f536869706d656e7420616c726561647920696e207472616e736974000000000060448201526064016105cd565b60098281018054600160ff199182168117909255918301805490921617905560028201546040519081526001600160a01b0385811691908716907faafab9f94340179ff9cefd29621e1772a4b8efab8023163838f1b0a8f6ce5df59060200160405180910390a35050505050565b600080600080600080606080606060008060008060008f6001600160a01b03166001600160a01b031681526020019081526020016000208d81548110610e5557610e55611719565b60009182526020918290206040805161016081018252600a90930290910180546001600160a01b039081168452600182015416938301939093526002830154908201526003820154606082015260048201546080820152600582015460a082015260068201805491929160c084019190610ece90611551565b80601f0160208091040260200160405190810160405280929190818152602001828054610efa90611551565b8015610f475780601f10610f1c57610100808354040283529160200191610f47565b820191906000526020600020905b815481529060010190602001808311610f2a57829003601f168201915b50505050508152602001600782018054610f6090611551565b80601f0160208091040260200160405190810160405280929190818152602001828054610f8c90611551565b8015610fd95780601f10610fae57610100808354040283529160200191610fd9565b820191906000526020600020905b815481529060010190602001808311610fbc57829003601f168201915b50505050508152602001600882018054610ff290611551565b80601f016020809104026020016040519081016040528092919081815260200182805461101e90611551565b801561106b5780601f106110405761010080835404028352916020019161106b565b820191906000526020600020905b81548152906001019060200180831161104e57829003601f168201915b5050509183525050600982015460209091019060ff1660028111156110925761109261131c565b60028111156110a3576110a361131c565b81526020016009820160019054906101000a900460ff1615151515815250509050806000015181602001518260400151836060015184608001518560a001518660c001518760e001518861010001518961012001518a61014001519b509b509b509b509b509b509b509b509b509b509b50509295989b509295989b9093969950565b80356001600160a01b038116811461113c57600080fd5b919050565b634e487b7160e01b600052604160045260246000fd5b600082601f83011261116857600080fd5b813567ffffffffffffffff8082111561118357611183611141565b604051601f8301601f19908116603f011681019082821181831017156111ab576111ab611141565b816040528381528660208588010111156111c457600080fd5b836020870160208301376000602085830101528094505050505092915050565b600080600080600080600060e0888a0312156111ff57600080fd5b61120888611125565b9650602088013595506040880135945060608801359350608088013567ffffffffffffffff8082111561123a57600080fd5b6112468b838c01611157565b945060a08a013591508082111561125c57600080fd5b6112688b838c01611157565b935060c08a013591508082111561127e57600080fd5b5061128b8a828b01611157565b91505092959891949750929550565b6000806000606084860312156112af57600080fd5b6112b884611125565b92506112c660208501611125565b9150604084013590509250925092565b6000815180845260005b818110156112fc576020818501810151868301820152016112e0565b506000602082860101526020601f19601f83011685010191505092915050565b634e487b7160e01b600052602160045260246000fd5b6003811061135057634e487b7160e01b600052602160045260246000fd5b9052565b60006020808301818452808551808352604092508286019150828160051b87010184880160005b8381101561146057888303603f19018552815180516001600160a01b03168452610160818901516001600160a01b038116868b0152508188015185890152606080830151908601526080808301519086015260a0808301519086015260c0808301518187018390526113ef838801826112d6565b9250505060e0808301518683038288015261140a83826112d6565b92505050610100808301518683038288015261142683826112d6565b925050506101208083015161143d82880182611332565b50506101409182015115159490910193909352938601939086019060010161137b565b509098975050505050505050565b60006020828403121561148057600080fd5b61148982611125565b9392505050565b600080604083850312156114a357600080fd5b6114ac83611125565b946020939093013593505050565b600061016060018060a01b03808f168452808e166020850152508b60408401528a60608401528960808401528860a08401528060c08401526114fe818401896112d6565b905082810360e084015261151281886112d6565b905082810361010084015261152781876112d6565b915050611538610120830185611332565b8215156101408301529c9b505050505050505050505050565b600181811c9082168061156557607f821691505b60208210810361158557634e487b7160e01b600052602260045260246000fd5b50919050565b601f8211156115d557600081815260208120601f850160051c810160208610156115b25750805b601f850160051c820191505b818110156115d1578281556001016115be565b5050505b505050565b815167ffffffffffffffff8111156115f4576115f4611141565b611608816116028454611551565b8461158b565b602080601f83116001811461163d57600084156116255750858301515b600019600386901b1c1916600185901b1785556115d1565b600085815260208120601f198616915b8281101561166c5788860151825594840194600190910190840161164d565b508582101561168a5787850151600019600388901b60f8161c191681555b5050505050600190811b01905550565b6000600182016116ba57634e487b7160e01b600052601160045260246000fd5b5060010190565b86815285602082015284604082015260c0606082015260006116e660c08301866112d6565b82810360808401526116f881866112d6565b905082810360a084015261170c81856112d6565b9998505050505050505050565b634e487b7160e01b600052603260045260246000fdfea264697066735822122027f6e3ce155eaec30bec3458caed277e2f7b27ce24c9b0d0b43df2f4548d596f64736f6c63430008120033",
  "linkReferences": {},
  "deployedLinkReferences": {}
}